{
  "contractName": "YDDShow",
  "abi": [
    {
      "inputs": [],
      "stateMutability": "nonpayable",
      "type": "constructor"
    },
    {
      "inputs": [],
      "name": "owner",
      "outputs": [
        {
          "internalType": "address",
          "name": "",
          "type": "address"
        }
      ],
      "stateMutability": "view",
      "type": "function",
      "constant": true
    },
    {
      "inputs": [
        {
          "internalType": "uint256",
          "name": "_age",
          "type": "uint256"
        }
      ],
      "name": "setAge",
      "outputs": [],
      "stateMutability": "nonpayable",
      "type": "function"
    },
    {
      "inputs": [],
      "name": "getAge",
      "outputs": [
        {
          "internalType": "uint256",
          "name": "",
          "type": "uint256"
        }
      ],
      "stateMutability": "view",
      "type": "function",
      "constant": true
    }
  ],
  "bytecode": "0x608060405234801561001057600080fd5b5033600160006101000a81548173ffffffffffffffffffffffffffffffffffffffff021916908373ffffffffffffffffffffffffffffffffffffffff1602179055506102c7806100616000396000f3fe608060405234801561001057600080fd5b50600436106100415760003560e01c80638da5cb5b14610046578063967e6e6514610064578063d5dcf12714610082575b600080fd5b61004e61009e565b60405161005b9190610167565b60405180910390f35b61006c6100c4565b604051610079919061019b565b60405180910390f35b61009c600480360381019061009791906101e7565b6100cd565b005b600160009054906101000a900473ffffffffffffffffffffffffffffffffffffffff1681565b60008054905090565b6000811180156100dd5750609681105b61011c576040517f08c379a000000000000000000000000000000000000000000000000000000000815260040161011390610271565b60405180910390fd5b8060008190555050565b600073ffffffffffffffffffffffffffffffffffffffff82169050919050565b600061015182610126565b9050919050565b61016181610146565b82525050565b600060208201905061017c6000830184610158565b92915050565b6000819050919050565b61019581610182565b82525050565b60006020820190506101b0600083018461018c565b92915050565b600080fd5b6101c481610182565b81146101cf57600080fd5b50565b6000813590506101e1816101bb565b92915050565b6000602082840312156101fd576101fc6101b6565b5b600061020b848285016101d2565b91505092915050565b600082825260208201905092915050565b7f496e76616c6964206167652076616c7565000000000000000000000000000000600082015250565b600061025b601183610214565b915061026682610225565b602082019050919050565b6000602082019050818103600083015261028a8161024e565b905091905056fea26469706673582212203a1c8dc4c8d39956b5ec6148470efcf9efdc2f288604537db28944a1a53a9c6764736f6c634300080a0033",
  "immutableReferences": {},
  "source": "// SPDX-License-Identifier: MIT\npragma solidity ^0.8.10;\n\ncontract YDDShow {\n    uint256 private age;\n    address public owner;\n\n    constructor() {\n        owner = msg.sender;\n    }\n\n    // Function to set age\n    function setAge(uint256 _age) public {\n        require(_age > 0 && _age < 150, \"Invalid age value\");\n        age = _age;\n    }\n\n    // Function to get age\n    function getAge() public view returns (uint256) {\n        return age;\n    }\n} ",
  "sourcePath": "/Users/sc_liu/Desktop/ts/truffle/contracts/YDDShow.sol",
  "compiler": {
    "name": "solc",
    "version": "0.8.10+commit.fc410830.Emscripten.clang"
  },
  "schemaVersion": "3.4.16",
  "updatedAt": "2025-02-21T05:33:52.428Z",
  "networkType": "ethereum",
  "devdoc": {
    "kind": "dev",
    "methods": {},
    "version": 1
  },
  "userdoc": {
    "kind": "user",
    "methods": {},
    "version": 1
  }
}